:100000000C942A000C943C000C943C000C943C0092
:100010000C943C000C943C000C943C000C943C0070
:100020000C943C000C943C000C943C000C943C0060
:100030000C943C000C943C000C943C000C943C0050
:100040000C943C000C943C000C943C000C943C0040
:100050000C943C0011241FBECFE5D8E0DEBFCDBF1D
:1000600020E0A0E6B0E001C01D92AA38B207E1F797
:100070000E9448000C9427010C94000097B1907ED8
:10008000892B87B9369A3699FECF84B195B10895F8
:100090008FE787BB80E487B987E886B910BC87E61D
:1000A00089B988E08AB986E880BDC0E6D0E010E072
:1000B00002E3E12CF12C6701812F0E943E00C80E63
:1000C000D91EE11CF11C8FE39FE10197F1F700C0FD
:1000D0000000015089F7B601C70122E330E040E09B
:1000E00050E00E9405016901A6E0B0E00E94F60020
:1000F0002AE030E040E050E00E9405012883398387
:10010000E12CF12CB601C7019F719062660F771F39
:10011000881F991FD8F7A7012AE030E00E94050147
:100120002A833B831C821D821F5F2696173009F0AD
:10013000BFCFA12C6701C394C0E6D0E0B12C00E092
:1001400010E0802F0E943E009C01902F8C81811135
:100150002CC0488159812417350790F58D818F5F18
:100160008D83853070F181E08C831D8228B34C2D06
:1001700001C0440F9A95EAF7922F942B98BBB42AAA
:100180000F5F1F4F269607301105D9F6AB1421F1EA
:100190005D9BFECFBCB8E12CF12C8FE99FE001976D
:1001A000F1F700C00000AB2CC7CF4A815B8142173A
:1001B0005307D8F68D818F5F8D838530B8F21C820E
:1001C0001D8228B3A60101C0440F9A95EAF7842F37
:1001D0008095822388BBD4CF8FEFE81AF80A88EC89
:1001E000E816F104D1F65D9BFECFD4CFA29FB001FB
:1001F000B39FC001A39F700D811D1124911DB29F5B
:10020000700D811D1124911D0895A1E21A2EAA1BC3
:10021000BB1BFD010DC0AA1FBB1FEE1FFF1FA217B6
:10022000B307E407F50720F0A21BB30BE40BF50BB3
:10023000661F771F881F991F1A9469F7609570953C
:10024000809590959B01AC01BD01CF010895F89474
:02025000FFCFDE
:00000001FF
