:100000000C942A000C9434000C9434000C943400AA
:100010000C9434000C9434000C9434000C94340090
:100020000C9434000C9434000C9434000C94340080
:100030000C9434000C9434000C9434000C94340070
:100040000C9434000C9434000C9434000C94340060
:100050000C94340011241FBECFE5D8E0DEBFCDBF25
:100060000E943F000C9403010C94000087B1807E35
:1000700087B9369A3699FECF84B195B10895B89A6A
:1000800083E0C09A9FEF21EE34E091502040304051
:10009000E1F700C00000C0989FEF21EE34E09150DE
:1000A00020403040E1F700C00000815051F780E46B
:1000B00087B987E886B910BC87E689B988E08AB92C
:1000C00086E880BDC2E3E12CF12C67010E94360076
:1000D000C80ED91EE11CF11C8FE39FE10197F1F7D7
:1000E00000C00000C15091F7B601C70122E330E023
:1000F00040E050E00E94E100E901283C304010F46B
:10010000C8E5D2E09E01A6E0B0E00E94D2002AE05D
:1001100030E040E050E00E94E1008901E0E0F0E0E2
:10012000BE01CF019F719062660F771F881F991FD4
:10013000D8F7AF012AE030E00E94E1006901C0E099
:10014000D0E07E010E943600D11118C080179107BF
:10015000D8F4CF5FC530C9F4C0E0C09A81E0D817A9
:10016000B9F05D9BFECF8CB9E12CF12CEFE9FFE0FB
:100170003197F1F700C00000D82FE4CFC816D90698
:1001800058F7CF5FC53049F7C0E0C09880E0E7CFAF
:100190009FEFE91AF90A98ECE916F10439F75D9B2B
:1001A000FECFE1CFA29FB001B39FC001A39F700D0E
:1001B000811D1124911DB29F700D811D1124911D6F
:1001C0000895A1E21A2EAA1BBB1BFD010DC0AA1F98
:1001D000BB1FEE1FFF1FA217B307E407F50720F0B0
:1001E000A21BB30BE40BF50B661F771F881F991F2B
:1001F0001A9469F760957095809590959B01AC0174
:0A020000BD01CF010895F894FFCF6F
:00000001FF
