:100000000C942A000C943C000C943C000C943C0092
:100010000C943C000C943C000C943C000C943C0070
:100020000C943C000C943C000C943C000C943C0060
:100030000C943C000C943C000C943C000C943C0050
:100040000C943C000C943C000C943C000C943C0040
:100050000C943C0011241FBECFE5D8E0DEBFCDBF1D
:1000600020E0A0E6B0E001C01D92A839B207E1F798
:100070000E9448000C9480010C94000097B1907E7F
:10008000892B87B9369A3699FECF84B195B10895F8
:100090008FE787BB63E0F62E88BB9FEF21EE34E04D
:1000A000915020403040E1F700C0000018BA9FEFA7
:1000B00021EE34E0915020403040E1F700C00000D4
:1000C000FA9451F780E487B987E886B910BC87E6CF
:1000D00089B988E08AB986E880BDC0E6D0E012E33D
:1000E000A12CB12C45018F2D0E943E00880E991E37
:1000F000A11CB11C8FE39FE10197F1F700C0000044
:10010000115089F7B401C50122E330E040E050E02E
:100110000E945E018901283C304010F408E512E09D
:10012000088319831E821F829801A5E0B0E00E9417
:100130004F012AE030E040E050E00E945E012A8357
:100140003B8320E030E0B801C9019F719062660FE7
:10015000771F881F991FD8F7A9012AE00E945E0126
:100160002C833D83F39428968F2D873009F0B7CFE9
:10017000712CA12CB12C45018394C0E6D0E000E0A5
:10018000C12CD12C8C2D0E943E001C2D2E812111C2
:100190002FC02A813B8182179307A8F52F812F5FFB
:1001A0002F832F3008F463C081E08E831F8288B3D1
:1001B000282D01C0220F1A95EAF7822B88BB022B4B
:1001C0008FEFC81AD80A289687E0C816D104D1F64E
:1001D000701609F459C05D9BFECF0CB9A12CB12C4F
:1001E0008FE99FE00197F1F700C00000702EC5CFA6
:1001F0002C813D8128173907C8F62F812F5F2F8367
:100200002F30A8F21E821F82E880F980A0E0B0E0C3
:100210008E199F09A040B040807C8062B595A7955B
:1002200097958795D8F7E80EF91EE882F98297012D
:10023000A5E0B0E00E944F012AE030E040E050E04D
:100240000E945E012A833B83B70180E090E09F71AA
:100250009062660F771F881F991FD8F72AE030E059
:1002600040E050E00E945E012C833D8302C02030BC
:1002700059F228B3882D01C0880F1A95EAF7182F74
:100280001095122318BB9CCF8FEFA81AB80A88ECE0
:10029000A816B10409F0A4CF5D9BFECF9ECFA29F0C
:1002A000B001B39FC001A39F700D811D1124911D4A
:1002B000B29F700D811D1124911D0895A1E21A2E87
:1002C000AA1BBB1BFD010DC0AA1FBB1FEE1FFF1FFA
:1002D000A217B307E407F50720F0A21BB30BE40B4A
:1002E000F50B661F771F881F991F1A9469F7609591
:1002F0007095809590959B01AC01BD01CF0108954B
:04030000F894FFCF9F
:00000001FF
